{"contracts/Crud.sol":{"Crud":{"abi":[{"inputs":[{"internalType":"string","name":"_name","type":"string"}],"name":"createItem","outputs":[],"stateMutability":"nonpayable","type":"function"},{"inputs":[{"internalType":"uint256","name":"_id","type":"uint256"}],"name":"deleteItem","outputs":[],"stateMutability":"nonpayable","type":"function"},{"inputs":[{"internalType":"uint256","name":"_id","type":"uint256"}],"name":"getItem","outputs":[{"internalType":"uint256","name":"","type":"uint256"},{"internalType":"string","name":"","type":"string"}],"stateMutability":"view","type":"function"},{"inputs":[],"name":"getItemCount","outputs":[{"internalType":"uint256","name":"","type":"uint256"}],"stateMutability":"view","type":"function"},{"inputs":[{"internalType":"uint256","name":"_id","type":"uint256"},{"internalType":"string","name":"_name","type":"string"}],"name":"updateItem","outputs":[],"stateMutability":"nonpayable","type":"function"}],"evm":{"bytecode":{"linkReferences":{},"object":"608060405260018055348015601357600080fd5b50610e22806100236000396000f3fe608060405234801561001057600080fd5b50600436106100575760003560e01c80633129e7731461005c5780633d54eebb1461008d578063654fc833146100a95780637749cf23146100c5578063b065b2a9146100e3575b600080fd5b610076600480360381019061007191906105aa565b6100ff565b604051610084929190610676565b60405180910390f35b6100a760048036038101906100a291906107db565b61026e565b005b6100c360048036038101906100be91906105aa565b6102ed565b005b6100cd610435565b6040516100da9190610824565b60405180910390f35b6100fd60048036038101906100f8919061083f565b610441565b005b6000606060005b60008054905081101561022d5783600082815481106101285761012761089b565b5b9060005260206000209060020201600001540361022057600081815481106101535761015261089b565b5b906000526020600020906002020160000154600082815481106101795761017861089b565b5b9060005260206000209060020201600101808054610196906108f9565b80601f01602080910402602001604051908101604052809291908181526020018280546101c2906108f9565b801561020f5780601f106101e45761010080835404028352916020019161020f565b820191906000526020600020905b8154815290600101906020018083116101f257829003601f168201915b505050505090509250925050610269565b8080600101915050610106565b506040517f08c379a000000000000000000000000000000000000000000000000000000000815260040161026090610976565b60405180910390fd5b915091565b6000604051806040016040528060015481526020018381525090806001815401808255809150506001900390600052602060002090600202016000909190919091506000820151816000015560208201518160010190816102cf9190610b42565b505050600160008154809291906102e590610c43565b919050555050565b60005b6000805490508110156103f65781600082815481106103125761031161089b565b5b906000526020600020906002020160000154036103e9576000600160008054905061033d9190610c8b565b8154811061034e5761034d61089b565b5b9060005260206000209060020201600082815481106103705761036f61089b565b5b9060005260206000209060020201600082015481600001556001820181600101908161039c9190610cd5565b5090505060008054806103b2576103b1610dbd565b5b60019003818190600052602060002090600202016000808201600090556001820160006103df9190610503565b5050905550610432565b80806001019150506102f0565b506040517f08c379a000000000000000000000000000000000000000000000000000000000815260040161042990610976565b60405180910390fd5b50565b60008080549050905090565b60005b6000805490508110156104c35782600082815481106104665761046561089b565b5b906000526020600020906002020160000154036104b65781600082815481106104925761049161089b565b5b906000526020600020906002020160010190816104af9190610b42565b50506104ff565b8080600101915050610444565b506040517f08c379a00000000000000000000000000000000000000000000000000000000081526004016104f690610976565b60405180910390fd5b5050565b50805461050f906108f9565b6000825580601f106105215750610540565b601f01602090049060005260206000209081019061053f9190610543565b5b50565b5b8082111561055c576000816000905550600101610544565b5090565b6000604051905090565b600080fd5b600080fd5b6000819050919050565b61058781610574565b811461059257600080fd5b50565b6000813590506105a48161057e565b92915050565b6000602082840312156105c0576105bf61056a565b5b60006105ce84828501610595565b91505092915050565b6105e081610574565b82525050565b600081519050919050565b600082825260208201905092915050565b60005b83811015610620578082015181840152602081019050610605565b60008484015250505050565b6000601f19601f8301169050919050565b6000610648826105e6565b61065281856105f1565b9350610662818560208601610602565b61066b8161062c565b840191505092915050565b600060408201905061068b60008301856105d7565b818103602083015261069d818461063d565b90509392505050565b600080fd5b600080fd5b7f4e487b7100000000000000000000000000000000000000000000000000000000600052604160045260246000fd5b6106e88261062c565b810181811067ffffffffffffffff82111715610707576107066106b0565b5b80604052505050565b600061071a610560565b905061072682826106df565b919050565b600067ffffffffffffffff821115610746576107456106b0565b5b61074f8261062c565b9050602081019050919050565b82818337600083830152505050565b600061077e6107798461072b565b610710565b90508281526020810184848401111561079a576107996106ab565b5b6107a584828561075c565b509392505050565b600082601f8301126107c2576107c16106a6565b5b81356107d284826020860161076b565b91505092915050565b6000602082840312156107f1576107f061056a565b5b600082013567ffffffffffffffff81111561080f5761080e61056f565b5b61081b848285016107ad565b91505092915050565b600060208201905061083960008301846105d7565b92915050565b600080604083850312156108565761085561056a565b5b600061086485828601610595565b925050602083013567ffffffffffffffff8111156108855761088461056f565b5b610891858286016107ad565b9150509250929050565b7f4e487b7100000000000000000000000000000000000000000000000000000000600052603260045260246000fd5b7f4e487b7100000000000000000000000000000000000000000000000000000000600052602260045260246000fd5b6000600282049050600182168061091157607f821691505b602082108103610924576109236108ca565b5b50919050565b7f4974656d206e6f7420666f756e64000000000000000000000000000000000000600082015250565b6000610960600e836105f1565b915061096b8261092a565b602082019050919050565b6000602082019050818103600083015261098f81610953565b9050919050565b60008190508160005260206000209050919050565b60006020601f8301049050919050565b600082821b905092915050565b6000600883026109f87fffffffffffffffffffffffffffffffffffffffffffffffffffffffffffffffff826109bb565b610a0286836109bb565b95508019841693508086168417925050509392505050565b6000819050919050565b6000610a3f610a3a610a3584610574565b610a1a565b610574565b9050919050565b6000819050919050565b610a5983610a24565b610a6d610a6582610a46565b8484546109c8565b825550505050565b600090565b610a82610a75565b610a8d818484610a50565b505050565b5b81811015610ab157610aa6600082610a7a565b600181019050610a93565b5050565b601f821115610af657610ac781610996565b610ad0846109ab565b81016020851015610adf578190505b610af3610aeb856109ab565b830182610a92565b50505b505050565b600082821c905092915050565b6000610b1960001984600802610afb565b1980831691505092915050565b6000610b328383610b08565b9150826002028217905092915050565b610b4b826105e6565b67ffffffffffffffff811115610b6457610b636106b0565b5b610b6e82546108f9565b610b79828285610ab5565b600060209050601f831160018114610bac5760008415610b9a578287015190505b610ba48582610b26565b865550610c0c565b601f198416610bba86610996565b60005b82811015610be257848901518255600182019150602085019450602081019050610bbd565b86831015610bff5784890151610bfb601f891682610b08565b8355505b6001600288020188555050505b505050505050565b7f4e487b7100000000000000000000000000000000000000000000000000000000600052601160045260246000fd5b6000610c4e82610574565b91507fffffffffffffffffffffffffffffffffffffffffffffffffffffffffffffffff8203610c8057610c7f610c14565b5b600182019050919050565b6000610c9682610574565b9150610ca183610574565b9250828203905081811115610cb957610cb8610c14565b5b92915050565b600081549050610cce816108f9565b9050919050565b818103610ce3575050610dbb565b610cec82610cbf565b67ffffffffffffffff811115610d0557610d046106b0565b5b610d0f82546108f9565b610d1a828285610ab5565b6000601f831160018114610d495760008415610d37578287015490505b610d418582610b26565b865550610db4565b601f198416610d5787610996565b9650610d6286610996565b60005b82811015610d8a57848901548255600182019150600185019450602081019050610d65565b86831015610da75784890154610da3601f891682610b08565b8355505b6001600288020188555050505b5050505050505b565b7f4e487b7100000000000000000000000000000000000000000000000000000000600052603160045260246000fdfea264697066735822122036335ae53f56022052f30ee81e2c54ab10483f00a349a3faac24eb1840dce01f64736f6c634300081b0033","opcodes":"PUSH1 0x80 PUSH1 0x40 MSTORE PUSH1 0x1 DUP1 SSTORE CALLVALUE DUP1 ISZERO PUSH1 0x13 JUMPI PUSH1 0x0 DUP1 REVERT JUMPDEST POP PUSH2 0xE22 DUP1 PUSH2 0x23 PUSH1 0x0 CODECOPY PUSH1 0x0 RETURN INVALID PUSH1 0x80 PUSH1 0x40 MSTORE CALLVALUE DUP1 ISZERO PUSH2 0x10 JUMPI PUSH1 0x0 DUP1 REVERT JUMPDEST POP PUSH1 0x4 CALLDATASIZE LT PUSH2 0x57 JUMPI PUSH1 0x0 CALLDATALOAD PUSH1 0xE0 SHR DUP1 PUSH4 0x3129E773 EQ PUSH2 0x5C JUMPI DUP1 PUSH4 0x3D54EEBB EQ PUSH2 0x8D JUMPI DUP1 PUSH4 0x654FC833 EQ PUSH2 0xA9 JUMPI DUP1 PUSH4 0x7749CF23 EQ PUSH2 0xC5 JUMPI DUP1 PUSH4 0xB065B2A9 EQ PUSH2 0xE3 JUMPI JUMPDEST PUSH1 0x0 DUP1 REVERT JUMPDEST PUSH2 0x76 PUSH1 0x4 DUP1 CALLDATASIZE SUB DUP2 ADD SWAP1 PUSH2 0x71 SWAP2 SWAP1 PUSH2 0x5AA JUMP JUMPDEST PUSH2 0xFF JUMP JUMPDEST PUSH1 0x40 MLOAD PUSH2 0x84 SWAP3 SWAP2 SWAP1 PUSH2 0x676 JUMP JUMPDEST PUSH1 0x40 MLOAD DUP1 SWAP2 SUB SWAP1 RETURN JUMPDEST PUSH2 0xA7 PUSH1 0x4 DUP1 CALLDATASIZE SUB DUP2 ADD SWAP1 PUSH2 0xA2 SWAP2 SWAP1 PUSH2 0x7DB JUMP JUMPDEST PUSH2 0x26E JUMP JUMPDEST STOP JUMPDEST PUSH2 0xC3 PUSH1 0x4 DUP1 CALLDATASIZE SUB DUP2 ADD SWAP1 PUSH2 0xBE SWAP2 SWAP1 PUSH2 0x5AA JUMP JUMPDEST PUSH2 0x2ED JUMP JUMPDEST STOP JUMPDEST PUSH2 0xCD PUSH2 0x435 JUMP JUMPDEST PUSH1 0x40 MLOAD PUSH2 0xDA SWAP2 SWAP1 PUSH2 0x824 JUMP JUMPDEST PUSH1 0x40 MLOAD DUP1 SWAP2 SUB SWAP1 RETURN JUMPDEST PUSH2 0xFD PUSH1 0x4 DUP1 CALLDATASIZE SUB DUP2 ADD SWAP1 PUSH2 0xF8 SWAP2 SWAP1 PUSH2 0x83F JUMP JUMPDEST PUSH2 0x441 JUMP JUMPDEST STOP JUMPDEST PUSH1 0x0 PUSH1 0x60 PUSH1 0x0 JUMPDEST PUSH1 0x0 DUP1 SLOAD SWAP1 POP DUP2 LT ISZERO PUSH2 0x22D JUMPI DUP4 PUSH1 0x0 DUP3 DUP2 SLOAD DUP2 LT PUSH2 0x128 JUMPI PUSH2 0x127 PUSH2 0x89B JUMP JUMPDEST JUMPDEST SWAP1 PUSH1 0x0 MSTORE PUSH1 0x20 PUSH1 0x0 KECCAK256 SWAP1 PUSH1 0x2 MUL ADD PUSH1 0x0 ADD SLOAD SUB PUSH2 0x220 JUMPI PUSH1 0x0 DUP2 DUP2 SLOAD DUP2 LT PUSH2 0x153 JUMPI PUSH2 0x152 PUSH2 0x89B JUMP JUMPDEST JUMPDEST SWAP1 PUSH1 0x0 MSTORE PUSH1 0x20 PUSH1 0x0 KECCAK256 SWAP1 PUSH1 0x2 MUL ADD PUSH1 0x0 ADD SLOAD PUSH1 0x0 DUP3 DUP2 SLOAD DUP2 LT PUSH2 0x179 JUMPI PUSH2 0x178 PUSH2 0x89B JUMP JUMPDEST JUMPDEST SWAP1 PUSH1 0x0 MSTORE PUSH1 0x20 PUSH1 0x0 KECCAK256 SWAP1 PUSH1 0x2 MUL ADD PUSH1 0x1 ADD DUP1 DUP1 SLOAD PUSH2 0x196 SWAP1 PUSH2 0x8F9 JUMP JUMPDEST DUP1 PUSH1 0x1F ADD PUSH1 0x20 DUP1 SWAP2 DIV MUL PUSH1 0x20 ADD PUSH1 0x40 MLOAD SWAP1 DUP2 ADD PUSH1 0x40 MSTORE DUP1 SWAP3 SWAP2 SWAP1 DUP2 DUP2 MSTORE PUSH1 0x20 ADD DUP3 DUP1 SLOAD PUSH2 0x1C2 SWAP1 PUSH2 0x8F9 JUMP JUMPDEST DUP1 ISZERO PUSH2 0x20F JUMPI DUP1 PUSH1 0x1F LT PUSH2 0x1E4 JUMPI PUSH2 0x100 DUP1 DUP4 SLOAD DIV MUL DUP4 MSTORE SWAP2 PUSH1 0x20 ADD SWAP2 PUSH2 0x20F JUMP JUMPDEST DUP3 ADD SWAP2 SWAP1 PUSH1 0x0 MSTORE PUSH1 0x20 PUSH1 0x0 KECCAK256 SWAP1 JUMPDEST DUP2 SLOAD DUP2 MSTORE SWAP1 PUSH1 0x1 ADD SWAP1 PUSH1 0x20 ADD DUP1 DUP4 GT PUSH2 0x1F2 JUMPI DUP3 SWAP1 SUB PUSH1 0x1F AND DUP3 ADD SWAP2 JUMPDEST POP POP POP POP POP SWAP1 POP SWAP3 POP SWAP3 POP POP PUSH2 0x269 JUMP JUMPDEST DUP1 DUP1 PUSH1 0x1 ADD SWAP2 POP POP PUSH2 0x106 JUMP JUMPDEST POP PUSH1 0x40 MLOAD PUSH32 0x8C379A000000000000000000000000000000000000000000000000000000000 DUP2 MSTORE PUSH1 0x4 ADD PUSH2 0x260 SWAP1 PUSH2 0x976 JUMP JUMPDEST PUSH1 0x40 MLOAD DUP1 SWAP2 SUB SWAP1 REVERT JUMPDEST SWAP2 POP SWAP2 JUMP JUMPDEST PUSH1 0x0 PUSH1 0x40 MLOAD DUP1 PUSH1 0x40 ADD PUSH1 0x40 MSTORE DUP1 PUSH1 0x1 SLOAD DUP2 MSTORE PUSH1 0x20 ADD DUP4 DUP2 MSTORE POP SWAP1 DUP1 PUSH1 0x1 DUP2 SLOAD ADD DUP1 DUP3 SSTORE DUP1 SWAP2 POP POP PUSH1 0x1 SWAP1 SUB SWAP1 PUSH1 0x0 MSTORE PUSH1 0x20 PUSH1 0x0 KECCAK256 SWAP1 PUSH1 0x2 MUL ADD PUSH1 0x0 SWAP1 SWAP2 SWAP1 SWAP2 SWAP1 SWAP2 POP PUSH1 0x0 DUP3 ADD MLOAD DUP2 PUSH1 0x0 ADD SSTORE PUSH1 0x20 DUP3 ADD MLOAD DUP2 PUSH1 0x1 ADD SWAP1 DUP2 PUSH2 0x2CF SWAP2 SWAP1 PUSH2 0xB42 JUMP JUMPDEST POP POP POP PUSH1 0x1 PUSH1 0x0 DUP2 SLOAD DUP1 SWAP3 SWAP2 SWAP1 PUSH2 0x2E5 SWAP1 PUSH2 0xC43 JUMP JUMPDEST SWAP2 SWAP1 POP SSTORE POP POP JUMP JUMPDEST PUSH1 0x0 JUMPDEST PUSH1 0x0 DUP1 SLOAD SWAP1 POP DUP2 LT ISZERO PUSH2 0x3F6 JUMPI DUP2 PUSH1 0x0 DUP3 DUP2 SLOAD DUP2 LT PUSH2 0x312 JUMPI PUSH2 0x311 PUSH2 0x89B JUMP JUMPDEST JUMPDEST SWAP1 PUSH1 0x0 MSTORE PUSH1 0x20 PUSH1 0x0 KECCAK256 SWAP1 PUSH1 0x2 MUL ADD PUSH1 0x0 ADD SLOAD SUB PUSH2 0x3E9 JUMPI PUSH1 0x0 PUSH1 0x1 PUSH1 0x0 DUP1 SLOAD SWAP1 POP PUSH2 0x33D SWAP2 SWAP1 PUSH2 0xC8B JUMP JUMPDEST DUP2 SLOAD DUP2 LT PUSH2 0x34E JUMPI PUSH2 0x34D PUSH2 0x89B JUMP JUMPDEST JUMPDEST SWAP1 PUSH1 0x0 MSTORE PUSH1 0x20 PUSH1 0x0 KECCAK256 SWAP1 PUSH1 0x2 MUL ADD PUSH1 0x0 DUP3 DUP2 SLOAD DUP2 LT PUSH2 0x370 JUMPI PUSH2 0x36F PUSH2 0x89B JUMP JUMPDEST JUMPDEST SWAP1 PUSH1 0x0 MSTORE PUSH1 0x20 PUSH1 0x0 KECCAK256 SWAP1 PUSH1 0x2 MUL ADD PUSH1 0x0 DUP3 ADD SLOAD DUP2 PUSH1 0x0 ADD SSTORE PUSH1 0x1 DUP3 ADD DUP2 PUSH1 0x1 ADD SWAP1 DUP2 PUSH2 0x39C SWAP2 SWAP1 PUSH2 0xCD5 JUMP JUMPDEST POP SWAP1 POP POP PUSH1 0x0 DUP1 SLOAD DUP1 PUSH2 0x3B2 JUMPI PUSH2 0x3B1 PUSH2 0xDBD JUMP JUMPDEST JUMPDEST PUSH1 0x1 SWAP1 SUB DUP2 DUP2 SWAP1 PUSH1 0x0 MSTORE PUSH1 0x20 PUSH1 0x0 KECCAK256 SWAP1 PUSH1 0x2 MUL ADD PUSH1 0x0 DUP1 DUP3 ADD PUSH1 0x0 SWAP1 SSTORE PUSH1 0x1 DUP3 ADD PUSH1 0x0 PUSH2 0x3DF SWAP2 SWAP1 PUSH2 0x503 JUMP JUMPDEST POP POP SWAP1 SSTORE POP PUSH2 0x432 JUMP JUMPDEST DUP1 DUP1 PUSH1 0x1 ADD SWAP2 POP POP PUSH2 0x2F0 JUMP JUMPDEST POP PUSH1 0x40 MLOAD PUSH32 0x8C379A000000000000000000000000000000000000000000000000000000000 DUP2 MSTORE PUSH1 0x4 ADD PUSH2 0x429 SWAP1 PUSH2 0x976 JUMP JUMPDEST PUSH1 0x40 MLOAD DUP1 SWAP2 SUB SWAP1 REVERT JUMPDEST POP JUMP JUMPDEST PUSH1 0x0 DUP1 DUP1 SLOAD SWAP1 POP SWAP1 POP SWAP1 JUMP JUMPDEST PUSH1 0x0 JUMPDEST PUSH1 0x0 DUP1 SLOAD SWAP1 POP DUP2 LT ISZERO PUSH2 0x4C3 JUMPI DUP3 PUSH1 0x0 DUP3 DUP2 SLOAD DUP2 LT PUSH2 0x466 JUMPI PUSH2 0x465 PUSH2 0x89B JUMP JUMPDEST JUMPDEST SWAP1 PUSH1 0x0 MSTORE PUSH1 0x20 PUSH1 0x0 KECCAK256 SWAP1 PUSH1 0x2 MUL ADD PUSH1 0x0 ADD SLOAD SUB PUSH2 0x4B6 JUMPI DUP2 PUSH1 0x0 DUP3 DUP2 SLOAD DUP2 LT PUSH2 0x492 JUMPI PUSH2 0x491 PUSH2 0x89B JUMP JUMPDEST JUMPDEST SWAP1 PUSH1 0x0 MSTORE PUSH1 0x20 PUSH1 0x0 KECCAK256 SWAP1 PUSH1 0x2 MUL ADD PUSH1 0x1 ADD SWAP1 DUP2 PUSH2 0x4AF SWAP2 SWAP1 PUSH2 0xB42 JUMP JUMPDEST POP POP PUSH2 0x4FF JUMP JUMPDEST DUP1 DUP1 PUSH1 0x1 ADD SWAP2 POP POP PUSH2 0x444 JUMP JUMPDEST POP PUSH1 0x40 MLOAD PUSH32 0x8C379A000000000000000000000000000000000000000000000000000000000 DUP2 MSTORE PUSH1 0x4 ADD PUSH2 0x4F6 SWAP1 PUSH2 0x976 JUMP JUMPDEST PUSH1 0x40 MLOAD DUP1 SWAP2 SUB SWAP1 REVERT JUMPDEST POP POP JUMP JUMPDEST POP DUP1 SLOAD PUSH2 0x50F SWAP1 PUSH2 0x8F9 JUMP JUMPDEST PUSH1 0x0 DUP3 SSTORE DUP1 PUSH1 0x1F LT PUSH2 0x521 JUMPI POP PUSH2 0x540 JUMP JUMPDEST PUSH1 0x1F ADD PUSH1 0x20 SWAP1 DIV SWAP1 PUSH1 0x0 MSTORE PUSH1 0x20 PUSH1 0x0 KECCAK256 SWAP1 DUP2 ADD SWAP1 PUSH2 0x53F SWAP2 SWAP1 PUSH2 0x543 JUMP JUMPDEST JUMPDEST POP JUMP JUMPDEST JUMPDEST DUP1 DUP3 GT ISZERO PUSH2 0x55C JUMPI PUSH1 0x0 DUP2 PUSH1 0x0 SWAP1 SSTORE POP PUSH1 0x1 ADD PUSH2 0x544 JUMP JUMPDEST POP SWAP1 JUMP JUMPDEST PUSH1 0x0 PUSH1 0x40 MLOAD SWAP1 POP SWAP1 JUMP JUMPDEST PUSH1 0x0 DUP1 REVERT JUMPDEST PUSH1 0x0 DUP1 REVERT JUMPDEST PUSH1 0x0 DUP2 SWAP1 POP SWAP2 SWAP1 POP JUMP JUMPDEST PUSH2 0x587 DUP2 PUSH2 0x574 JUMP JUMPDEST DUP2 EQ PUSH2 0x592 JUMPI PUSH1 0x0 DUP1 REVERT JUMPDEST POP JUMP JUMPDEST PUSH1 0x0 DUP2 CALLDATALOAD SWAP1 POP PUSH2 0x5A4 DUP2 PUSH2 0x57E JUMP JUMPDEST SWAP3 SWAP2 POP POP JUMP JUMPDEST PUSH1 0x0 PUSH1 0x20 DUP3 DUP5 SUB SLT ISZERO PUSH2 0x5C0 JUMPI PUSH2 0x5BF PUSH2 0x56A JUMP JUMPDEST JUMPDEST PUSH1 0x0 PUSH2 0x5CE DUP5 DUP3 DUP6 ADD PUSH2 0x595 JUMP JUMPDEST SWAP2 POP POP SWAP3 SWAP2 POP POP JUMP JUMPDEST PUSH2 0x5E0 DUP2 PUSH2 0x574 JUMP JUMPDEST DUP3 MSTORE POP POP JUMP JUMPDEST PUSH1 0x0 DUP2 MLOAD SWAP1 POP SWAP2 SWAP1 POP JUMP JUMPDEST PUSH1 0x0 DUP3 DUP3 MSTORE PUSH1 0x20 DUP3 ADD SWAP1 POP SWAP3 SWAP2 POP POP JUMP JUMPDEST PUSH1 0x0 JUMPDEST DUP4 DUP2 LT ISZERO PUSH2 0x620 JUMPI DUP1 DUP3 ADD MLOAD DUP2 DUP5 ADD MSTORE PUSH1 0x20 DUP2 ADD SWAP1 POP PUSH2 0x605 JUMP JUMPDEST PUSH1 0x0 DUP5 DUP5 ADD MSTORE POP POP POP POP JUMP JUMPDEST PUSH1 0x0 PUSH1 0x1F NOT PUSH1 0x1F DUP4 ADD AND SWAP1 POP SWAP2 SWAP1 POP JUMP JUMPDEST PUSH1 0x0 PUSH2 0x648 DUP3 PUSH2 0x5E6 JUMP JUMPDEST PUSH2 0x652 DUP2 DUP6 PUSH2 0x5F1 JUMP JUMPDEST SWAP4 POP PUSH2 0x662 DUP2 DUP6 PUSH1 0x20 DUP7 ADD PUSH2 0x602 JUMP JUMPDEST PUSH2 0x66B DUP2 PUSH2 0x62C JUMP JUMPDEST DUP5 ADD SWAP2 POP POP SWAP3 SWAP2 POP POP JUMP JUMPDEST PUSH1 0x0 PUSH1 0x40 DUP3 ADD SWAP1 POP PUSH2 0x68B PUSH1 0x0 DUP4 ADD DUP6 PUSH2 0x5D7 JUMP JUMPDEST DUP2 DUP2 SUB PUSH1 0x20 DUP4 ADD MSTORE PUSH2 0x69D DUP2 DUP5 PUSH2 0x63D JUMP JUMPDEST SWAP1 POP SWAP4 SWAP3 POP POP POP JUMP JUMPDEST PUSH1 0x0 DUP1 REVERT JUMPDEST PUSH1 0x0 DUP1 REVERT JUMPDEST PUSH32 0x4E487B7100000000000000000000000000000000000000000000000000000000 PUSH1 0x0 MSTORE PUSH1 0x41 PUSH1 0x4 MSTORE PUSH1 0x24 PUSH1 0x0 REVERT JUMPDEST PUSH2 0x6E8 DUP3 PUSH2 0x62C JUMP JUMPDEST DUP2 ADD DUP2 DUP2 LT PUSH8 0xFFFFFFFFFFFFFFFF DUP3 GT OR ISZERO PUSH2 0x707 JUMPI PUSH2 0x706 PUSH2 0x6B0 JUMP JUMPDEST JUMPDEST DUP1 PUSH1 0x40 MSTORE POP POP POP JUMP JUMPDEST PUSH1 0x0 PUSH2 0x71A PUSH2 0x560 JUMP JUMPDEST SWAP1 POP PUSH2 0x726 DUP3 DUP3 PUSH2 0x6DF JUMP JUMPDEST SWAP2 SWAP1 POP JUMP JUMPDEST PUSH1 0x0 PUSH8 0xFFFFFFFFFFFFFFFF DUP3 GT ISZERO PUSH2 0x746 JUMPI PUSH2 0x745 PUSH2 0x6B0 JUMP JUMPDEST JUMPDEST PUSH2 0x74F DUP3 PUSH2 0x62C JUMP JUMPDEST SWAP1 POP PUSH1 0x20 DUP2 ADD SWAP1 POP SWAP2 SWAP1 POP JUMP JUMPDEST DUP3 DUP2 DUP4 CALLDATACOPY PUSH1 0x0 DUP4 DUP4 ADD MSTORE POP POP POP JUMP JUMPDEST PUSH1 0x0 PUSH2 0x77E PUSH2 0x779 DUP5 PUSH2 0x72B JUMP JUMPDEST PUSH2 0x710 JUMP JUMPDEST SWAP1 POP DUP3 DUP2 MSTORE PUSH1 0x20 DUP2 ADD DUP5 DUP5 DUP5 ADD GT ISZERO PUSH2 0x79A JUMPI PUSH2 0x799 PUSH2 0x6AB JUMP JUMPDEST JUMPDEST PUSH2 0x7A5 DUP5 DUP3 DUP6 PUSH2 0x75C JUMP JUMPDEST POP SWAP4 SWAP3 POP POP POP JUMP JUMPDEST PUSH1 0x0 DUP3 PUSH1 0x1F DUP4 ADD SLT PUSH2 0x7C2 JUMPI PUSH2 0x7C1 PUSH2 0x6A6 JUMP JUMPDEST JUMPDEST DUP2 CALLDATALOAD PUSH2 0x7D2 DUP5 DUP3 PUSH1 0x20 DUP7 ADD PUSH2 0x76B JUMP JUMPDEST SWAP2 POP POP SWAP3 SWAP2 POP POP JUMP JUMPDEST PUSH1 0x0 PUSH1 0x20 DUP3 DUP5 SUB SLT ISZERO PUSH2 0x7F1 JUMPI PUSH2 0x7F0 PUSH2 0x56A JUMP JUMPDEST JUMPDEST PUSH1 0x0 DUP3 ADD CALLDATALOAD PUSH8 0xFFFFFFFFFFFFFFFF DUP2 GT ISZERO PUSH2 0x80F JUMPI PUSH2 0x80E PUSH2 0x56F JUMP JUMPDEST JUMPDEST PUSH2 0x81B DUP5 DUP3 DUP6 ADD PUSH2 0x7AD JUMP JUMPDEST SWAP2 POP POP SWAP3 SWAP2 POP POP JUMP JUMPDEST PUSH1 0x0 PUSH1 0x20 DUP3 ADD SWAP1 POP PUSH2 0x839 PUSH1 0x0 DUP4 ADD DUP5 PUSH2 0x5D7 JUMP JUMPDEST SWAP3 SWAP2 POP POP JUMP JUMPDEST PUSH1 0x0 DUP1 PUSH1 0x40 DUP4 DUP6 SUB SLT ISZERO PUSH2 0x856 JUMPI PUSH2 0x855 PUSH2 0x56A JUMP JUMPDEST JUMPDEST PUSH1 0x0 PUSH2 0x864 DUP6 DUP3 DUP7 ADD PUSH2 0x595 JUMP JUMPDEST SWAP3 POP POP PUSH1 0x20 DUP4 ADD CALLDATALOAD PUSH8 0xFFFFFFFFFFFFFFFF DUP2 GT ISZERO PUSH2 0x885 JUMPI PUSH2 0x884 PUSH2 0x56F JUMP JUMPDEST JUMPDEST PUSH2 0x891 DUP6 DUP3 DUP7 ADD PUSH2 0x7AD JUMP JUMPDEST SWAP2 POP POP SWAP3 POP SWAP3 SWAP1 POP JUMP JUMPDEST PUSH32 0x4E487B7100000000000000000000000000000000000000000000000000000000 PUSH1 0x0 MSTORE PUSH1 0x32 PUSH1 0x4 MSTORE PUSH1 0x24 PUSH1 0x0 REVERT JUMPDEST PUSH32 0x4E487B7100000000000000000000000000000000000000000000000000000000 PUSH1 0x0 MSTORE PUSH1 0x22 PUSH1 0x4 MSTORE PUSH1 0x24 PUSH1 0x0 REVERT JUMPDEST PUSH1 0x0 PUSH1 0x2 DUP3 DIV SWAP1 POP PUSH1 0x1 DUP3 AND DUP1 PUSH2 0x911 JUMPI PUSH1 0x7F DUP3 AND SWAP2 POP JUMPDEST PUSH1 0x20 DUP3 LT DUP2 SUB PUSH2 0x924 JUMPI PUSH2 0x923 PUSH2 0x8CA JUMP JUMPDEST JUMPDEST POP SWAP2 SWAP1 POP JUMP JUMPDEST PUSH32 0x4974656D206E6F7420666F756E64000000000000000000000000000000000000 PUSH1 0x0 DUP3 ADD MSTORE POP JUMP JUMPDEST PUSH1 0x0 PUSH2 0x960 PUSH1 0xE DUP4 PUSH2 0x5F1 JUMP JUMPDEST SWAP2 POP PUSH2 0x96B DUP3 PUSH2 0x92A JUMP JUMPDEST PUSH1 0x20 DUP3 ADD SWAP1 POP SWAP2 SWAP1 POP JUMP JUMPDEST PUSH1 0x0 PUSH1 0x20 DUP3 ADD SWAP1 POP DUP2 DUP2 SUB PUSH1 0x0 DUP4 ADD MSTORE PUSH2 0x98F DUP2 PUSH2 0x953 JUMP JUMPDEST SWAP1 POP SWAP2 SWAP1 POP JUMP JUMPDEST PUSH1 0x0 DUP2 SWAP1 POP DUP2 PUSH1 0x0 MSTORE PUSH1 0x20 PUSH1 0x0 KECCAK256 SWAP1 POP SWAP2 SWAP1 POP JUMP JUMPDEST PUSH1 0x0 PUSH1 0x20 PUSH1 0x1F DUP4 ADD DIV SWAP1 POP SWAP2 SWAP1 POP JUMP JUMPDEST PUSH1 0x0 DUP3 DUP3 SHL SWAP1 POP SWAP3 SWAP2 POP POP JUMP JUMPDEST PUSH1 0x0 PUSH1 0x8 DUP4 MUL PUSH2 0x9F8 PUSH32 0xFFFFFFFFFFFFFFFFFFFFFFFFFFFFFFFFFFFFFFFFFFFFFFFFFFFFFFFFFFFFFFFF DUP3 PUSH2 0x9BB JUMP JUMPDEST PUSH2 0xA02 DUP7 DUP4 PUSH2 0x9BB JUMP JUMPDEST SWAP6 POP DUP1 NOT DUP5 AND SWAP4 POP DUP1 DUP7 AND DUP5 OR SWAP3 POP POP POP SWAP4 SWAP3 POP POP POP JUMP JUMPDEST PUSH1 0x0 DUP2 SWAP1 POP SWAP2 SWAP1 POP JUMP JUMPDEST PUSH1 0x0 PUSH2 0xA3F PUSH2 0xA3A PUSH2 0xA35 DUP5 PUSH2 0x574 JUMP JUMPDEST PUSH2 0xA1A JUMP JUMPDEST PUSH2 0x574 JUMP JUMPDEST SWAP1 POP SWAP2 SWAP1 POP JUMP JUMPDEST PUSH1 0x0 DUP2 SWAP1 POP SWAP2 SWAP1 POP JUMP JUMPDEST PUSH2 0xA59 DUP4 PUSH2 0xA24 JUMP JUMPDEST PUSH2 0xA6D PUSH2 0xA65 DUP3 PUSH2 0xA46 JUMP JUMPDEST DUP5 DUP5 SLOAD PUSH2 0x9C8 JUMP JUMPDEST DUP3 SSTORE POP POP POP POP JUMP JUMPDEST PUSH1 0x0 SWAP1 JUMP JUMPDEST PUSH2 0xA82 PUSH2 0xA75 JUMP JUMPDEST PUSH2 0xA8D DUP2 DUP5 DUP5 PUSH2 0xA50 JUMP JUMPDEST POP POP POP JUMP JUMPDEST JUMPDEST DUP2 DUP2 LT ISZERO PUSH2 0xAB1 JUMPI PUSH2 0xAA6 PUSH1 0x0 DUP3 PUSH2 0xA7A JUMP JUMPDEST PUSH1 0x1 DUP2 ADD SWAP1 POP PUSH2 0xA93 JUMP JUMPDEST POP POP JUMP JUMPDEST PUSH1 0x1F DUP3 GT ISZERO PUSH2 0xAF6 JUMPI PUSH2 0xAC7 DUP2 PUSH2 0x996 JUMP JUMPDEST PUSH2 0xAD0 DUP5 PUSH2 0x9AB JUMP JUMPDEST DUP2 ADD PUSH1 0x20 DUP6 LT ISZERO PUSH2 0xADF JUMPI DUP2 SWAP1 POP JUMPDEST PUSH2 0xAF3 PUSH2 0xAEB DUP6 PUSH2 0x9AB JUMP JUMPDEST DUP4 ADD DUP3 PUSH2 0xA92 JUMP JUMPDEST POP POP JUMPDEST POP POP POP JUMP JUMPDEST PUSH1 0x0 DUP3 DUP3 SHR SWAP1 POP SWAP3 SWAP2 POP POP JUMP JUMPDEST PUSH1 0x0 PUSH2 0xB19 PUSH1 0x0 NOT DUP5 PUSH1 0x8 MUL PUSH2 0xAFB JUMP JUMPDEST NOT DUP1 DUP4 AND SWAP2 POP POP SWAP3 SWAP2 POP POP JUMP JUMPDEST PUSH1 0x0 PUSH2 0xB32 DUP4 DUP4 PUSH2 0xB08 JUMP JUMPDEST SWAP2 POP DUP3 PUSH1 0x2 MUL DUP3 OR SWAP1 POP SWAP3 SWAP2 POP POP JUMP JUMPDEST PUSH2 0xB4B DUP3 PUSH2 0x5E6 JUMP JUMPDEST PUSH8 0xFFFFFFFFFFFFFFFF DUP2 GT ISZERO PUSH2 0xB64 JUMPI PUSH2 0xB63 PUSH2 0x6B0 JUMP JUMPDEST JUMPDEST PUSH2 0xB6E DUP3 SLOAD PUSH2 0x8F9 JUMP JUMPDEST PUSH2 0xB79 DUP3 DUP3 DUP6 PUSH2 0xAB5 JUMP JUMPDEST PUSH1 0x0 PUSH1 0x20 SWAP1 POP PUSH1 0x1F DUP4 GT PUSH1 0x1 DUP2 EQ PUSH2 0xBAC JUMPI PUSH1 0x0 DUP5 ISZERO PUSH2 0xB9A JUMPI DUP3 DUP8 ADD MLOAD SWAP1 POP JUMPDEST PUSH2 0xBA4 DUP6 DUP3 PUSH2 0xB26 JUMP JUMPDEST DUP7 SSTORE POP PUSH2 0xC0C JUMP JUMPDEST PUSH1 0x1F NOT DUP5 AND PUSH2 0xBBA DUP7 PUSH2 0x996 JUMP JUMPDEST PUSH1 0x0 JUMPDEST DUP3 DUP2 LT ISZERO PUSH2 0xBE2 JUMPI DUP5 DUP10 ADD MLOAD DUP3 SSTORE PUSH1 0x1 DUP3 ADD SWAP2 POP PUSH1 0x20 DUP6 ADD SWAP5 POP PUSH1 0x20 DUP2 ADD SWAP1 POP PUSH2 0xBBD JUMP JUMPDEST DUP7 DUP4 LT ISZERO PUSH2 0xBFF JUMPI DUP5 DUP10 ADD MLOAD PUSH2 0xBFB PUSH1 0x1F DUP10 AND DUP3 PUSH2 0xB08 JUMP JUMPDEST DUP4 SSTORE POP JUMPDEST PUSH1 0x1 PUSH1 0x2 DUP9 MUL ADD DUP9 SSTORE POP POP POP JUMPDEST POP POP POP POP POP POP JUMP JUMPDEST PUSH32 0x4E487B7100000000000000000000000000000000000000000000000000000000 PUSH1 0x0 MSTORE PUSH1 0x11 PUSH1 0x4 MSTORE PUSH1 0x24 PUSH1 0x0 REVERT JUMPDEST PUSH1 0x0 PUSH2 0xC4E DUP3 PUSH2 0x574 JUMP JUMPDEST SWAP2 POP PUSH32 0xFFFFFFFFFFFFFFFFFFFFFFFFFFFFFFFFFFFFFFFFFFFFFFFFFFFFFFFFFFFFFFFF DUP3 SUB PUSH2 0xC80 JUMPI PUSH2 0xC7F PUSH2 0xC14 JUMP JUMPDEST JUMPDEST PUSH1 0x1 DUP3 ADD SWAP1 POP SWAP2 SWAP1 POP JUMP JUMPDEST PUSH1 0x0 PUSH2 0xC96 DUP3 PUSH2 0x574 JUMP JUMPDEST SWAP2 POP PUSH2 0xCA1 DUP4 PUSH2 0x574 JUMP JUMPDEST SWAP3 POP DUP3 DUP3 SUB SWAP1 POP DUP2 DUP2 GT ISZERO PUSH2 0xCB9 JUMPI PUSH2 0xCB8 PUSH2 0xC14 JUMP JUMPDEST JUMPDEST SWAP3 SWAP2 POP POP JUMP JUMPDEST PUSH1 0x0 DUP2 SLOAD SWAP1 POP PUSH2 0xCCE DUP2 PUSH2 0x8F9 JUMP JUMPDEST SWAP1 POP SWAP2 SWAP1 POP JUMP JUMPDEST DUP2 DUP2 SUB PUSH2 0xCE3 JUMPI POP POP PUSH2 0xDBB JUMP JUMPDEST PUSH2 0xCEC DUP3 PUSH2 0xCBF JUMP JUMPDEST PUSH8 0xFFFFFFFFFFFFFFFF DUP2 GT ISZERO PUSH2 0xD05 JUMPI PUSH2 0xD04 PUSH2 0x6B0 JUMP JUMPDEST JUMPDEST PUSH2 0xD0F DUP3 SLOAD PUSH2 0x8F9 JUMP JUMPDEST PUSH2 0xD1A DUP3 DUP3 DUP6 PUSH2 0xAB5 JUMP JUMPDEST PUSH1 0x0 PUSH1 0x1F DUP4 GT PUSH1 0x1 DUP2 EQ PUSH2 0xD49 JUMPI PUSH1 0x0 DUP5 ISZERO PUSH2 0xD37 JUMPI DUP3 DUP8 ADD SLOAD SWAP1 POP JUMPDEST PUSH2 0xD41 DUP6 DUP3 PUSH2 0xB26 JUMP JUMPDEST DUP7 SSTORE POP PUSH2 0xDB4 JUMP JUMPDEST PUSH1 0x1F NOT DUP5 AND PUSH2 0xD57 DUP8 PUSH2 0x996 JUMP JUMPDEST SWAP7 POP PUSH2 0xD62 DUP7 PUSH2 0x996 JUMP JUMPDEST PUSH1 0x0 JUMPDEST DUP3 DUP2 LT ISZERO PUSH2 0xD8A JUMPI DUP5 DUP10 ADD SLOAD DUP3 SSTORE PUSH1 0x1 DUP3 ADD SWAP2 POP PUSH1 0x1 DUP6 ADD SWAP5 POP PUSH1 0x20 DUP2 ADD SWAP1 POP PUSH2 0xD65 JUMP JUMPDEST DUP7 DUP4 LT ISZERO PUSH2 0xDA7 JUMPI DUP5 DUP10 ADD SLOAD PUSH2 0xDA3 PUSH1 0x1F DUP10 AND DUP3 PUSH2 0xB08 JUMP JUMPDEST DUP4 SSTORE POP JUMPDEST PUSH1 0x1 PUSH1 0x2 DUP9 MUL ADD DUP9 SSTORE POP POP POP JUMPDEST POP POP POP POP POP POP JUMPDEST JUMP JUMPDEST PUSH32 0x4E487B7100000000000000000000000000000000000000000000000000000000 PUSH1 0x0 MSTORE PUSH1 0x31 PUSH1 0x4 MSTORE PUSH1 0x24 PUSH1 0x0 REVERT INVALID LOG2 PUSH5 0x6970667358 0x22 SLT KECCAK256 CALLDATASIZE CALLER GAS 0xE5 EXTCODEHASH JUMP MUL KECCAK256 MSTORE RETURN 0xE 0xE8 0x1E 0x2C SLOAD 0xAB LT BASEFEE EXTCODEHASH STOP LOG3 BLOBHASH LOG3 STATICCALL 0xAC 0x24 0xEB XOR BLOCKHASH 0xDC 0xE0 0x1F PUSH5 0x736F6C6343 STOP ADDMOD SHL STOP CALLER "},"methodIdentifiers":{"createItem(string)":"3d54eebb","deleteItem(uint256)":"654fc833","getItem(uint256)":"3129e773","getItemCount()":"7749cf23","updateItem(uint256,string)":"b065b2a9"}}}}}