{
  "_format": "hh-sol-artifact-1",
  "contractName": "Crud",
  "sourceName": "contracts/Crud.sol",
  "abi": [
    {
      "inputs": [
        {
          "internalType": "string",
          "name": "_name",
          "type": "string"
        }
      ],
      "name": "createItem",
      "outputs": [],
      "stateMutability": "nonpayable",
      "type": "function"
    },
    {
      "inputs": [
        {
          "internalType": "uint256",
          "name": "_id",
          "type": "uint256"
        }
      ],
      "name": "deleteItem",
      "outputs": [],
      "stateMutability": "nonpayable",
      "type": "function"
    },
    {
      "inputs": [
        {
          "internalType": "uint256",
          "name": "_id",
          "type": "uint256"
        }
      ],
      "name": "getItem",
      "outputs": [
        {
          "internalType": "uint256",
          "name": "",
          "type": "uint256"
        },
        {
          "internalType": "string",
          "name": "",
          "type": "string"
        }
      ],
      "stateMutability": "view",
      "type": "function"
    },
    {
      "inputs": [],
      "name": "getItemCount",
      "outputs": [
        {
          "internalType": "uint256",
          "name": "",
          "type": "uint256"
        }
      ],
      "stateMutability": "view",
      "type": "function"
    },
    {
      "inputs": [
        {
          "internalType": "uint256",
          "name": "_id",
          "type": "uint256"
        },
        {
          "internalType": "string",
          "name": "_name",
          "type": "string"
        }
      ],
      "name": "updateItem",
      "outputs": [],
      "stateMutability": "nonpayable",
      "type": "function"
    }
  ],
  "bytecode": "0x608060405260018055348015601357600080fd5b50610e22806100236000396000f3fe608060405234801561001057600080fd5b50600436106100575760003560e01c80633129e7731461005c5780633d54eebb1461008d578063654fc833146100a95780637749cf23146100c5578063b065b2a9146100e3575b600080fd5b610076600480360381019061007191906105aa565b6100ff565b604051610084929190610676565b60405180910390f35b6100a760048036038101906100a291906107db565b61026e565b005b6100c360048036038101906100be91906105aa565b6102ed565b005b6100cd610435565b6040516100da9190610824565b60405180910390f35b6100fd60048036038101906100f8919061083f565b610441565b005b6000606060005b60008054905081101561022d5783600082815481106101285761012761089b565b5b9060005260206000209060020201600001540361022057600081815481106101535761015261089b565b5b906000526020600020906002020160000154600082815481106101795761017861089b565b5b9060005260206000209060020201600101808054610196906108f9565b80601f01602080910402602001604051908101604052809291908181526020018280546101c2906108f9565b801561020f5780601f106101e45761010080835404028352916020019161020f565b820191906000526020600020905b8154815290600101906020018083116101f257829003601f168201915b505050505090509250925050610269565b8080600101915050610106565b506040517f08c379a000000000000000000000000000000000000000000000000000000000815260040161026090610976565b60405180910390fd5b915091565b6000604051806040016040528060015481526020018381525090806001815401808255809150506001900390600052602060002090600202016000909190919091506000820151816000015560208201518160010190816102cf9190610b42565b505050600160008154809291906102e590610c43565b919050555050565b60005b6000805490508110156103f65781600082815481106103125761031161089b565b5b906000526020600020906002020160000154036103e9576000600160008054905061033d9190610c8b565b8154811061034e5761034d61089b565b5b9060005260206000209060020201600082815481106103705761036f61089b565b5b9060005260206000209060020201600082015481600001556001820181600101908161039c9190610cd5565b5090505060008054806103b2576103b1610dbd565b5b60019003818190600052602060002090600202016000808201600090556001820160006103df9190610503565b5050905550610432565b80806001019150506102f0565b506040517f08c379a000000000000000000000000000000000000000000000000000000000815260040161042990610976565b60405180910390fd5b50565b60008080549050905090565b60005b6000805490508110156104c35782600082815481106104665761046561089b565b5b906000526020600020906002020160000154036104b65781600082815481106104925761049161089b565b5b906000526020600020906002020160010190816104af9190610b42565b50506104ff565b8080600101915050610444565b506040517f08c379a00000000000000000000000000000000000000000000000000000000081526004016104f690610976565b60405180910390fd5b5050565b50805461050f906108f9565b6000825580601f106105215750610540565b601f01602090049060005260206000209081019061053f9190610543565b5b50565b5b8082111561055c576000816000905550600101610544565b5090565b6000604051905090565b600080fd5b600080fd5b6000819050919050565b61058781610574565b811461059257600080fd5b50565b6000813590506105a48161057e565b92915050565b6000602082840312156105c0576105bf61056a565b5b60006105ce84828501610595565b91505092915050565b6105e081610574565b82525050565b600081519050919050565b600082825260208201905092915050565b60005b83811015610620578082015181840152602081019050610605565b60008484015250505050565b6000601f19601f8301169050919050565b6000610648826105e6565b61065281856105f1565b9350610662818560208601610602565b61066b8161062c565b840191505092915050565b600060408201905061068b60008301856105d7565b818103602083015261069d818461063d565b90509392505050565b600080fd5b600080fd5b7f4e487b7100000000000000000000000000000000000000000000000000000000600052604160045260246000fd5b6106e88261062c565b810181811067ffffffffffffffff82111715610707576107066106b0565b5b80604052505050565b600061071a610560565b905061072682826106df565b919050565b600067ffffffffffffffff821115610746576107456106b0565b5b61074f8261062c565b9050602081019050919050565b82818337600083830152505050565b600061077e6107798461072b565b610710565b90508281526020810184848401111561079a576107996106ab565b5b6107a584828561075c565b509392505050565b600082601f8301126107c2576107c16106a6565b5b81356107d284826020860161076b565b91505092915050565b6000602082840312156107f1576107f061056a565b5b600082013567ffffffffffffffff81111561080f5761080e61056f565b5b61081b848285016107ad565b91505092915050565b600060208201905061083960008301846105d7565b92915050565b600080604083850312156108565761085561056a565b5b600061086485828601610595565b925050602083013567ffffffffffffffff8111156108855761088461056f565b5b610891858286016107ad565b9150509250929050565b7f4e487b7100000000000000000000000000000000000000000000000000000000600052603260045260246000fd5b7f4e487b7100000000000000000000000000000000000000000000000000000000600052602260045260246000fd5b6000600282049050600182168061091157607f821691505b602082108103610924576109236108ca565b5b50919050565b7f4974656d206e6f7420666f756e64000000000000000000000000000000000000600082015250565b6000610960600e836105f1565b915061096b8261092a565b602082019050919050565b6000602082019050818103600083015261098f81610953565b9050919050565b60008190508160005260206000209050919050565b60006020601f8301049050919050565b600082821b905092915050565b6000600883026109f87fffffffffffffffffffffffffffffffffffffffffffffffffffffffffffffffff826109bb565b610a0286836109bb565b95508019841693508086168417925050509392505050565b6000819050919050565b6000610a3f610a3a610a3584610574565b610a1a565b610574565b9050919050565b6000819050919050565b610a5983610a24565b610a6d610a6582610a46565b8484546109c8565b825550505050565b600090565b610a82610a75565b610a8d818484610a50565b505050565b5b81811015610ab157610aa6600082610a7a565b600181019050610a93565b5050565b601f821115610af657610ac781610996565b610ad0846109ab565b81016020851015610adf578190505b610af3610aeb856109ab565b830182610a92565b50505b505050565b600082821c905092915050565b6000610b1960001984600802610afb565b1980831691505092915050565b6000610b328383610b08565b9150826002028217905092915050565b610b4b826105e6565b67ffffffffffffffff811115610b6457610b636106b0565b5b610b6e82546108f9565b610b79828285610ab5565b600060209050601f831160018114610bac5760008415610b9a578287015190505b610ba48582610b26565b865550610c0c565b601f198416610bba86610996565b60005b82811015610be257848901518255600182019150602085019450602081019050610bbd565b86831015610bff5784890151610bfb601f891682610b08565b8355505b6001600288020188555050505b505050505050565b7f4e487b7100000000000000000000000000000000000000000000000000000000600052601160045260246000fd5b6000610c4e82610574565b91507fffffffffffffffffffffffffffffffffffffffffffffffffffffffffffffffff8203610c8057610c7f610c14565b5b600182019050919050565b6000610c9682610574565b9150610ca183610574565b9250828203905081811115610cb957610cb8610c14565b5b92915050565b600081549050610cce816108f9565b9050919050565b818103610ce3575050610dbb565b610cec82610cbf565b67ffffffffffffffff811115610d0557610d046106b0565b5b610d0f82546108f9565b610d1a828285610ab5565b6000601f831160018114610d495760008415610d37578287015490505b610d418582610b26565b865550610db4565b601f198416610d5787610996565b9650610d6286610996565b60005b82811015610d8a57848901548255600182019150600185019450602081019050610d65565b86831015610da75784890154610da3601f891682610b08565b8355505b6001600288020188555050505b5050505050505b565b7f4e487b7100000000000000000000000000000000000000000000000000000000600052603160045260246000fdfea264697066735822122036335ae53f56022052f30ee81e2c54ab10483f00a349a3faac24eb1840dce01f64736f6c634300081b0033",
  "linkReferences": {},
  "deployedLinkReferences": {}
}